:020000040800F2
:10000000B00400209D010008C30E00085D0D00082B
:10001000C10E0008A90200085112000800000000EB
:10002000000000000000000000000000C70E0008F3
:10003000AB02000800000000C50E0008C90E000851
:10004000B7010008B7010008B7010008B7010008B0
:10005000B7010008B7010008B7010008B7010008A0
:10006000B7010008B7010008B7010008B701000890
:10007000B7010008B7010008B7010008B701000880
:10008000B7010008B7010008B7010008B701000870
:10009000B7010008B7010008B7010008B701000860
:1000A000B7010008B7010008B7010008B701000850
:1000B000B7010008B7010008B7010008B701000840
:1000C000B7010008B7010008B7010008B701000830
:1000D000B7010008B7010008B7010008B701000820
:1000E000B7010008B7010008B7010008B701000810
:1000F000B7010008B7010008B7010008B701000800
:10010000B7010008B7010008B7010008B7010008EF
:10011000B7010008B7010008B7010008B7010008DF
:10012000B7010008B7010008B7010008B7010008CF
:10013000B7010008B7010008B7010008B7010008BF
:10014000B7010008B7010008B7010008B7010008AF
:10015000B7010008B7010008B7010008B70100089F
:10016000B7010008B7010008B7010008B70100088F
:10017000B7010008B7010008B7010008000000003F
:10018000B7010008B7010008DFF80CD000F07AF8DA
:100190000048004789150008B00400200648804741
:1001A00006480047FEE7FEE7FEE7FEE7FEE7FEE75C
:1001B000FEE7FEE7FEE7FEE7510F000889010008B1
:1001C0002DE9F05F0546002092469B46884606468C
:1001D000814640241BE0284641464746224600F01F
:1001E00041F853465A46C01A914110D31146184659
:1001F000224600F028F82D1A67EB01084F462246E8
:100200000120002100F01FF817EB00094E41201ECD
:10021000A4F10104DFDC484631462A464346BDE8E6
:10022000F09FD2B201E000F8012B491EFBD27047CB
:100230000022F6E710B513460A4604461946FFF7B2
:10024000F0FF204610BD202A04DB203A00FA02F11C
:10025000002070479140C2F1200320FA03F31943B4
:1002600090407047202A04DB203A21FA02F0002156
:10027000704721FA02F3D040C2F1200291400843B6
:1002800019467047064C074D06E0E06840F0010350
:1002900094E8070098471034AC42F6D3FFF778FF94
:1002A000E415000804160008FEE7704770470000D8
:1002B00070B5B3F5804F05D06FF0704140F8221053
:1002C000002070BD50F82240084B8E891C40D1E9B7
:1002D000003543EA05138D6889692D0245EA064514
:1002E0002B430B43234340F82230E9E70000F0CFD3
:1002F000F0B50C6850F82430114A1340D1E90125BB
:10030000D1E903672A433E4332434E6932438E6943
:100310003243CE6932430E6A32434E6A32438E6AAA
:100320003243CE6A3243CE6B096B32430A431A43DF
:10033000082D01D142F0400240F824200020F0BDF9
:100340008000F0FF30B500EB820250688D8900F02C
:100350004043D1E9000440EA04108C68240244EAD6
:10036000054420430C8A074D05EB045420430C7DC3
:100370006D0105EB0464896920430843184350600C
:10038000002030BD0000F0FF70B5044600F034F9E5
:100390000546601C02D004480078044400F02CF9A3
:1003A000401BA042FAD370BD08000020F0B52048E1
:1003B00087B00168002939D1012101601D4800245E
:1003C000016841F0010101600068022500F00100B0
:1003D000059043F23F00CDE9000502AA03260C2751
:1003E00082E8D0006946144800F02EF84FF680707D
:1003F000CDE9000502AA694682E8D0000F4800F066
:1004000023F84CF27370CDE9000502AA694682E830
:10041000D0000B4800F018F8E802CDE9000502AA68
:10042000694682E8D000074800F00EF807B0F0BD3A
:100430000000002038380240001402400010024042
:10044000000C0240001802402DE9F84FDFF87CB1A3
:1004500000224FF001084FF0030A4FF00F090BF193
:10046000040E00BF0B6808FA02F42340A3426ED1C9
:100470004D68022D01D0122D0ED1D50800EB850C50
:10048000DCF820505607F70E09FA07F6B5430E6957
:10049000BE402E43CCF82060066855000F790AFA5A
:1004A00005FC07F0030726EA0C06AF403743076058
:1004B0004E68012E05D0022E03D0112E01D0122E2F
:1004C0000ED18668CF6826EA0C06AF4037438760B6
:1004D0004668A6430C79C4F3001494403443446046
:1004E000C6688C6826EA0C06AC403443C4604C688D
:1004F000E40065D5364C256845F4804525602468C0
:1005000022F0030504F480440094324C2E19D6F8EE
:10051000084895072F0F09FA07F5AC432E4DA8425E
:1005200001D1002524E02D4DA84201D101251FE075
:100530002B4DA84201D102251AE02A4DA84201D133
:10054000032515E0284DA84202D1042510E037E02C
:10055000264DA84201D105250AE0254DA84201D12A
:10056000062505E0234DA84201D1072500E0082516
:10057000BD402543C6F80858DBF800405D464E688C
:100580009C43F60300D51C432C60DEF80040754602
:100590004E689C43B60300D51C432C600B4D0835B8
:1005A0002C684E689C43F60200D51C432C60074D16
:1005B0000C352C684E689C43B60200D51C432C6059
:1005C000521C102AFFF44EAFBDE8F88F003C0140EA
:1005D0004438024000300140000002400004024064
:1005E00000080240000C02400010024000140240CB
:1005F00000180240001C024001488068704700005B
:100600000800002002488168027811448160704728
:10061000080000200B4810B5016841F4007101602A
:10062000016841F480610160016841F480710160FA
:10063000032000F061F8002000F006F800F024F834
:10064000002010BD003C024070B50D4D04464FF433
:100650007A712878B1FBF0F00A490968B1FBF0F033
:1006600000F001FB48B9102C07D200222146501E91
:1006700000F022F800206C6070BD012070BD000009
:1006800008000020140000200A4808B5016841F461
:1006900080410160006800F4804000900548001F20
:1006A000016841F080510160006800F080500090C6
:1006B00008BD000044380240F0B40E4B1B680C46E5
:1006C000C3F30223C3F10705042D00D90425191D26
:1006D000072901D2002300E0DB1E012606FA05F1FE
:1006E000491E214099409E40761E16403143F0BC81
:1006F00000F0C0BD0CED00E0064900F007020868FC
:100700004FF6FF03184040EA0220034A10430860F6
:10071000704700000CED00E00000FA052DE9F047FD
:100720000E46050065D0DFF81481D8F80000F7B256
:1007300000F00F00B04207D288F80070D8F800002F
:1007400000F00F00B04254D128683D4C810712D50B
:10075000400703D5206840F4E05020602878000767
:1007600003D5206840F4604020602068A96820F02C
:10077000F000084320602878C0072DD03049686811
:100780000839012812D0022813D0032811D0096893
:10079000890700292DDA216821F003010143216036
:1007A000FFF72AFF814641F2883A0EE00968890383
:1007B000EFE709688901ECE7FFF71EFFA0EB0901ED
:1007C000514502D90320BDE8F0872068696800F030
:1007D0000C00B0EB810FEFD1D8F80010404601F0CB
:1007E0000F01B14207D90770006800F00F00B04256
:1007F00001D00120E7E72878400705D52068E9689F
:1008000020F4E050084320602878000706D52068CF
:10081000296920F4604040EAC100206000F036F809
:100820002168084AC1F30311515CC84006490860B9
:100830000020FFF709FF0020C5E70000003C024050
:1008400008380240CC15000814000020044805496F
:1008500000680968044AC1F38221515CC8407047AE
:100860001400002008380240DC150008044805493F
:1008700000680968044AC1F34231515CC8407047BE
:100880001400002008380240DC150008154810B597
:10089000006810F00C02144813D01449042A0FD039
:1008A000082A0ED10F4C241F2268236802F03F0251
:1008B0005B0207D52068C0F38810A0FB010106E0A9
:1008C000084610BD2168C1F38811A1FB0001002377
:1008D000FFF776FC2168C1F30141491C4900B0FBD8
:1008E000F1F010BD083802400024F40040787D018A
:1008F0002DE9F84F050076D02878DFF8F8B2BE4C25
:10090000C00749D0DBF800105846C1F38101012926
:1009100008D00068C0F3810002280AD1201D0068B9
:10092000400206D52068800336D568680028E2D0EA
:1009300032E06868B0F5803F10D0B0F5A02F206895
:1009400010D020F480302060206820F480202060C7
:100950006868A0B1FFF750FE06460CE0206840F43E
:100960008030F4E740F480202060F7E7FFF744FE92
:10097000801B642873D820688003F7D50CE0FFF74C
:100980003BFE064605E000BFFFF736FE801B6428ED
:10099000F0D820688003F7D42878DFF860828007D9
:1009A0004FF000093ED5DBF80010584611F00C0F4F
:1009B00009D00068C0F3810002280BD18D48001FC8
:1009C0000068400206D42068800715D5E868012831
:1009D00009D111E0E868B8B10120C8F80000FFF7BC
:1009E0000BFE064605E002E1FFF706FE801B02282B
:1009F000C0D820688007F7D52068296920F0F80062
:100A000040EAC10020600DE0C8F80090FFF7F4FD57
:100A1000064604E0FFF7F0FD801B02281FD820687F
:100A20008007F7D42878000722D5724E7448696988
:100A30006C3671B101210160FFF7DEFD074604E06D
:100A4000FFF7DAFDC01B022809D830688007F7D508
:100A50000EE0C0F80090FFF7CFFD074605E083E009
:100A6000FFF7CAFDC01B02287ED830688007F7D484
:100A70002878400768D5DFF87CA100270AF1380AFA
:100A8000DAF80000C0000BD4DAF8001041F0805111
:100A9000CAF80010DAF80000012700F0805000903A
:100AA000584E3068C00510D4306840F48070306013
:100AB000FFF7A2FD009005E0FFF79EFD0099401AA8
:100AC000022851D83068C005F6D54A4EA868683665
:100AD00001280FD00528306810D020F001003060C8
:100AE000306820F004003060A868B8B1FFF784FDDA
:100AF00000900FE0306840F00100F4E740F004009F
:100B00003060F7E7FFF778FD0099411A41F288302D
:100B1000814264D830688007F4D50EE0FFF76CFDA1
:100B2000009007E0FFF768FD0099411A41F2883014
:100B3000814254D830688007F4D42FB1DAF800101D
:100B400021F08051CAF80010A869C0B3DBF800108A
:100B5000C1F3810102294AD00228484607D0C8F8CB
:100B60006000FFF749FD00E039E005463AE04746FE
:100B7000C8F86000FFF740FD064604E0FFF73CFDC3
:100B8000801B02282BD820688001F7D4D5E9070103
:100B90000843A96A1C4A490802EB01416A6A41EA12
:100BA0008211084395F82C1040EA01611148001F9A
:100BB000016001203866FFF71FFD054605E014E0DF
:100BC000FFF71AFD401B022809D820688001F7D5DD
:100BD0000BE000BFFFF710FD401B022802D90320E5
:100BE000BDE8F88F20688001F4D40020F8E70120E8
:100BF000F6E7000008380240003802400000474293
:100C0000800E4742007000400000FFFF70B515469F
:100C10000E46040003D094F8490010B107E001200B
:100C200070BD002084F84800204600F01AF804F156
:100C300008012068FFF75CFB3146A2682068FFF7D7
:100C400081FBD4E901022946236BFFF731FBA16840
:100C5000206850F8212042F0010240F821200020B5
:100C600070BDFFF7A3BB10B5401EB0F1807F01D36C
:100C7000012010BD4FF0E02460610F21601700F0EB
:100C8000F9FA0020A06107202061002010BD70B596
:100C9000040004D094F83900002510B106E00120CA
:100CA00070BD84F83850204600F022F8242084F8E3
:100CB00039002068C16821F40051C160204600F06D
:100CC00071F92068016921F490410161206841694E
:100CD00021F02A0141612068C16841F40051C160DE
:100CE000E563202084F8390084F83A00002070BDC4
:100CF00010B586B0044614216846FFF799FA1449E6
:100D00002068884221D11348016841F01001016038
:100D1000006800F0100005900E481438016841F09A
:100D2000010101600068694600F0010005904FF480
:100D3000C0600090022001900120029003200390E7
:100D4000072004900448FFF77FFB06B010BD0000A9
:100D5000001001404438024000000240FEE708B5A0
:100D60004FF0D840B0F88000ADF80000BDF80000AA
:100D700008BD01B5BDF80000ADF80000BDF80000E9
:100D80004FF0D841A1F87E0008BD000010B51D4805
:100D90008EB04FF0204101601B4941600621816007
:100DA00000211022C160C0E904128161C1611302F7
:100DB0000162C0E909139302C0E90B13D302C0E931
:100DC0000D3141640F203C230090CDE901030DF16A
:100DD0000C0C112306918CE80D000324CDE907408B
:100DE0000DF1280C0D9109948CE80D0007AA6946B5
:100DF0000448FFF70BFF002801D0FFF757FA0EB0A9
:100E000010BD00001C000020040100A01D4808B512
:100E1000016841F004010160016801F004010091E2
:100E2000016841F020010160016801F0200100919A
:100E3000016841F080010160016801F080010091CA
:100E4000016841F010010160016801F0100100919A
:100E5000016841F008010160016801F0080100919A
:100E6000016841F001010160016801F00101009198
:100E7000016841F040010160006800F0400000900E
:100E800008BD0000303802400C4810B50A49016026
:100E90004FF4E1314160002181600C22C160C0E962
:100EA00004128161C161FFF7F2FE002803D0BDE8A2
:100EB0001040FFF7FBB910BD001001406C0000208E
:100EC000FEE7704770477047FFF79CBB30B593B0A3
:100ED00030216846FFF7ACF914210CA8FFF7A8F9F8
:100EE00019480025016841F080510160006800F058
:100EF000805011901548016841F4804101600068FC
:100F0000022400F4804011900120039010200094EE
:100F100006940490CDE907504FF4A870CDE9090478
:100F200004200B906846FFF7E3FC0CA90F2081E832
:100F300031004FF4A0500F90E002109005210CA852
:100F4000FFF7ECFB13B030BD4038024000700040AA
:100F50001048016841F4700101600F48016841F0D8
:100F6000010101600C4A00210832116002680B4B3C
:100F70001A400260031D0A4A1A60026822F48022A5
:100F8000026005480C30016002495806803908604B
:100F90007047000088ED00E000380240FFFFF6FED9
:100FA000103000242DE9F041044600680169E26830
:100FB00021F44051114301612169A068E2690843AD
:100FC0006169114322680843D16849F20C6399436F
:100FD0000143D16020684169A26921F44071114345
:100FE0004161E2696425B2F5004F9748974922684C
:100FF0004FF032083FD08A4201D082427CD1FFF7C5
:1010000035FC00EBC00101EB001061688900B0FB0A
:10101000F1F6FFF72BFC00EBC00101EB001061685B
:101020008900B0FBF1F0B0FBF5F06FF01801484318
:1010300006EB800108EB0110B0FBF5F000F0F006C4
:10104000FFF714FC00EBC00101EB001061688900A0
:10105000B0FBF1F0B0FBF5F006EB0016FFF706FC75
:1010600000EBC00101EB001061688900B0FBF1F7F3
:10107000FFF7FCFBD2E08A4201D082423DD1FFF76C
:10108000F5FB00EBC00101EB001061684900B0FB0B
:10109000F1F0B0FBF5F00601FFF7E8FB00EBC00153
:1010A00001EB001061684900B0FBF1F7FFF7DEFBD0
:1010B00000EBC00101EB001061684900B0FBF1F0EA
:1010C000B0FBF5F06FF01801484307EB800108EB27
:1010D000C100B0FBF5F000F0F80006EB4006FFF7AA
:1010E000C5FB00EBC00101EB001061684900B0FBDB
:1010F000F1F7FFF7BBFB3CE055E0FFF7A7FB00EB88
:10110000C00101EB001061684900B0FBF1F0B0FBD9
:10111000F5F00601FFF79AFB00EBC00101EB0010B0
:1011200061684900B0FBF1F7FFF790FB00EBC001ED
:1011300001EB001061684900B0FBF1F0B0FBF5F085
:101140006FF01801484307EB800108EBC100B0FBCA
:10115000F5F000F0F80006EB4006FFF777FB00EB38
:10116000C00101EB001061684900B0FBF1F7FFF727
:101170006DFB00EBC00101EB001061684900B0FBA2
:10118000F1F0B0FBF5F06FF01801484307EB800178
:1011900008EBC100B0FBF5F000F007002168304417
:1011A0008860BDE8F081FFF751FB00EBC00101EB67
:1011B000001061688900B0FBF1F6FFF747FB00EB18
:1011C000C00101EB001061688900B0FBF1F0B0FBD9
:1011D000F5F06FF01801484306EB800108EB0110B1
:1011E000B0FBF5F000F0F006FFF730FB00EBC001BC
:1011F00001EB001061688900B0FBF1F0B0FBF5F085
:1012000006EB0016FFF722FB00EBC00101EB00101C
:1012100061688900B0FBF1F7FFF718FB00EBC00134
:1012200001EB001061688900B0FBF1F0B0FBF5F054
:101230006FF01801484307EB800108EB0110B0FB89
:10124000F5F000F00F00A9E7001401400010014084
:10125000FEE700000FB4054B10B503A9044A02983D
:1012600000F028F810BC5DF814FB000075150008AC
:10127000180000200907090E002804DB00F1E02017
:1012800080F80014704700F00F0000F1E02080F8B3
:10129000141D704702E008C8121F08C1002AFAD1C5
:1012A00070477047002001E001C1121F002AFBD1E6
:1012B000704700002DE9FF4F8DB09B460F46044656
:1012C000002606E025280BD05A460F999047641C4B
:1012D000761C20780028F5D111B03046BDE8F08F9B
:1012E0000025A8460122984900E0054314F8013F73
:1012F000203B02FA03F00842F7D120782E2817D1BC
:1013000014F8010F45F004052A280ED06FF02F02C3
:101310002078A0F1300109290AD808EB880102EBF6
:10132000410100EB0108641CF2E757F8048B641CD0
:1013300020786C280DD004DC4C2812D06A2811D1FA
:1013400004E074280DD07A280CD10AE045F4001589
:1013500007E0617845F48015814202D1641C05F5EF
:101360008015641C2278692A45D008DC002AB3D095
:10137000582A69D0632A10D0642A08D13BE0702A29
:1013800067D0732A13D0752A5CD0782A5CD01046B7
:101390005A460F999047761CD3E017F8040B8DF846
:1013A000000000208DF80100E946012003E057F815
:1013B000049B4FF0FF3069074FF0000501D40AE0AD
:1013C0006D1C45450DDA8542FADB19F80510002938
:1013D000F6D106E06D1C8542FCDB19F805100029EA
:1013E000F8D12E4404E019F8010B5A460F999047A2
:1013F0006D1EF8D2A5E00A200021CDE90801C5F351
:10140000025002280DD001CFC117031E71F1000355
:101410000DDA4FF0000CD0EB0C006CEB01012D232A
:1014200008E0FF1D27F00707F7E80201EDE72B05AD
:1014300004D52B238DF8283001233BE0EB0739D06E
:101440002023F7E70A2000E010200021CDE9080161
:1014500007E01020002145F00405CDE908014FF018
:101460000808C5F3025002280FD001CF00214FF029
:10147000000A2B071FD5702A0DD0DDE908C38CF0B8
:10148000100C5CEA030C0CD015E0FF1D27F00707D9
:10149000F7E80201EBE740228DF828204FF0010A1F
:1014A0000BE050EA010306D030238DF828308DF888
:1014B000292002239A46582A04D024A20DF120099B
:1014C0000B9209E026A2F9E7DDE90823FEF778FE92
:1014D0000B9B9B5C09F8013D50EA0102F4D1ADEB96
:1014E000090020300890680701D44FF001080899DE
:1014F000884502DDA8EB010000E0002080460025C1
:1015000006E00AA85A46405D0F9990476D1C761C6C
:101510005545F6DB04E030205A460F999047761C7B
:10152000B8F10001A8F10108F5DC05E019F8010B9C
:101530005A460F999047761C0899481E0890002932
:10154000F4DC641CC5E600000928010030313233A8
:1015500034353637383961626364656600000000EF
:1015600030313233343536373839414243444546D9
:101570000000000003490A685206FCD5C2B24A6066
:101580007047000000100140FFF744F8FFF79EFC91
:10159000FFF73CFCFFF7FAFBFFF776FC4FF496757C
:1015A000D320FFF7E6FB0024FFF7D9FB014605A097
:1015B000FFF750FE641CE4B2042CF5D32846FEF776
:1015C000E3FEEDE725780D0A0000000000000000B2
:1015D00000000000010203040607080900000000E3
:1015E0000102030404160008000000201C00000093
:1015F00094120008201600081C000020940400002B
:10160000A41200080000000000000000010000001B
:1016100010000000000000000024F40000000000A2
:040000050800018965
:00000001FF
